{
  "contractName": "SkillChainPrivateSale",
  "abi": [
    {
      "constant": true,
      "inputs": [],
      "name": "contributions",
      "outputs": [
        {
          "name": "",
          "type": "address"
        }
      ],
      "payable": false,
      "stateMutability": "view",
      "type": "function"
    },
    {
      "constant": true,
      "inputs": [],
      "name": "rate",
      "outputs": [
        {
          "name": "",
          "type": "uint256"
        }
      ],
      "payable": false,
      "stateMutability": "view",
      "type": "function"
    },
    {
      "constant": true,
      "inputs": [],
      "name": "endTime",
      "outputs": [
        {
          "name": "",
          "type": "uint256"
        }
      ],
      "payable": false,
      "stateMutability": "view",
      "type": "function"
    },
    {
      "constant": true,
      "inputs": [],
      "name": "cap",
      "outputs": [
        {
          "name": "",
          "type": "uint256"
        }
      ],
      "payable": false,
      "stateMutability": "view",
      "type": "function"
    },
    {
      "constant": true,
      "inputs": [],
      "name": "weiRaised",
      "outputs": [
        {
          "name": "",
          "type": "uint256"
        }
      ],
      "payable": false,
      "stateMutability": "view",
      "type": "function"
    },
    {
      "constant": true,
      "inputs": [],
      "name": "wallet",
      "outputs": [
        {
          "name": "",
          "type": "address"
        }
      ],
      "payable": false,
      "stateMutability": "view",
      "type": "function"
    },
    {
      "constant": true,
      "inputs": [],
      "name": "startTime",
      "outputs": [
        {
          "name": "",
          "type": "uint256"
        }
      ],
      "payable": false,
      "stateMutability": "view",
      "type": "function"
    },
    {
      "constant": true,
      "inputs": [],
      "name": "owner",
      "outputs": [
        {
          "name": "",
          "type": "address"
        }
      ],
      "payable": false,
      "stateMutability": "view",
      "type": "function"
    },
    {
      "constant": true,
      "inputs": [],
      "name": "minimumContribution",
      "outputs": [
        {
          "name": "",
          "type": "uint256"
        }
      ],
      "payable": false,
      "stateMutability": "view",
      "type": "function"
    },
    {
      "constant": true,
      "inputs": [],
      "name": "hasEnded",
      "outputs": [
        {
          "name": "",
          "type": "bool"
        }
      ],
      "payable": false,
      "stateMutability": "view",
      "type": "function"
    },
    {
      "constant": false,
      "inputs": [
        {
          "name": "newOwner",
          "type": "address"
        }
      ],
      "name": "transferOwnership",
      "outputs": [],
      "payable": false,
      "stateMutability": "nonpayable",
      "type": "function"
    },
    {
      "constant": true,
      "inputs": [],
      "name": "token",
      "outputs": [
        {
          "name": "",
          "type": "address"
        }
      ],
      "payable": false,
      "stateMutability": "view",
      "type": "function"
    },
    {
      "inputs": [
        {
          "name": "_startTime",
          "type": "uint256"
        },
        {
          "name": "_endTime",
          "type": "uint256"
        },
        {
          "name": "_rate",
          "type": "uint256"
        },
        {
          "name": "_wallet",
          "type": "address"
        },
        {
          "name": "_cap",
          "type": "uint256"
        }
      ],
      "payable": false,
      "stateMutability": "nonpayable",
      "type": "constructor"
    },
    {
      "payable": true,
      "stateMutability": "payable",
      "type": "fallback"
    },
    {
      "anonymous": false,
      "inputs": [
        {
          "indexed": true,
          "name": "previousOwner",
          "type": "address"
        },
        {
          "indexed": true,
          "name": "newOwner",
          "type": "address"
        }
      ],
      "name": "OwnershipTransferred",
      "type": "event"
    },
    {
      "anonymous": false,
      "inputs": [
        {
          "indexed": true,
          "name": "purchaser",
          "type": "address"
        },
        {
          "indexed": true,
          "name": "beneficiary",
          "type": "address"
        },
        {
          "indexed": false,
          "name": "value",
          "type": "uint256"
        },
        {
          "indexed": false,
          "name": "amount",
          "type": "uint256"
        }
      ],
      "name": "TokenPurchase",
      "type": "event"
    },
    {
      "constant": false,
      "inputs": [
        {
          "name": "beneficiary",
          "type": "address"
        }
      ],
      "name": "buyTokens",
      "outputs": [],
      "payable": true,
      "stateMutability": "payable",
      "type": "function"
    },
    {
      "constant": false,
      "inputs": [
        {
          "name": "_presaleContract",
          "type": "address"
        }
      ],
      "name": "closeTokenSale",
      "outputs": [],
      "payable": false,
      "stateMutability": "nonpayable",
      "type": "function"
    },
    {
      "constant": false,
      "inputs": [
        {
          "name": "_tokenAddress",
          "type": "address"
        },
        {
          "name": "_tokens",
          "type": "uint256"
        }
      ],
      "name": "transferAnyERC20Token",
      "outputs": [
        {
          "name": "success",
          "type": "bool"
        }
      ],
      "payable": false,
      "stateMutability": "nonpayable",
      "type": "function"
    }
  ],
  "bytecode": "0x6060604052671bc16d674ec80000600955341561001b57600080fd5b60405160a080612fce83398101604052808051919060200180519190602001805191906020018051919060200180519150819050858585854284101561006057600080fd5b8383101561006d57600080fd5b6000821161007a57600080fd5b600160a060020a038116151561008f57600080fd5b6100a464010000000061080a61015382021704565b60008054600160a060020a0319908116600160a060020a039384161782556001969096556002949094556004929092556003805490941691161790915581116100ec57600080fd5b60065560078054600160a060020a03191633600160a060020a0316179055610112610178565b604051809103906000f080151561012857600080fd5b60088054600160a060020a031916600160a060020a0392909216919091179055506101989350505050565b600061015d610188565b604051809103906000f080151561017357600080fd5b905090565b6040516103cc80611b0a83390190565b6040516110f880611ed683390190565b611963806101a76000396000f3006060604052600436106100c15763ffffffff60e060020a600035041663029eabcb81146100cc5780632c4e722e146100fb5780633197cbb614610120578063355274ea146101335780634042b66f14610146578063521eb2731461015957806378e979251461016c5780638da5cb5b1461017f578063937e09b114610192578063dbf5eb1c146101a5578063dc39d06d146101c4578063ec8ac4d8146101fa578063ecb70fb71461020e578063f2fde38b14610221578063fc0c546a14610240575b6100ca33610253565b005b34156100d757600080fd5b6100df6103e6565b604051600160a060020a03909116815260200160405180910390f35b341561010657600080fd5b61010e6103f5565b60405190815260200160405180910390f35b341561012b57600080fd5b61010e6103fb565b341561013e57600080fd5b61010e610401565b341561015157600080fd5b61010e610407565b341561016457600080fd5b6100df61040d565b341561017757600080fd5b61010e61041c565b341561018a57600080fd5b6100df610422565b341561019d57600080fd5b61010e610431565b34156101b057600080fd5b6100ca600160a060020a0360043516610437565b34156101cf57600080fd5b6101e6600160a060020a0360043516602435610546565b604051901515815260200160405180910390f35b6100ca600160a060020a0360043516610253565b341561021957600080fd5b6101e66105e8565b341561022c57600080fd5b6100ca600160a060020a0360043516610609565b341561024b57600080fd5b6100df6106a4565b600080600160a060020a038316151561026b57600080fd5b6102736106b3565b151561027e57600080fd5b34915061028a826106fc565b6005549091506102a0908363ffffffff61071916565b60055560008054600160a060020a0316906340c10f1990859084906040516020015260405160e060020a63ffffffff8516028152600160a060020a0390921660048301526024820152604401602060405180830381600087803b151561030557600080fd5b6102c65a03f1151561031657600080fd5b505050604051805190505082600160a060020a031633600160a060020a03167f623b3804fa71d67900d064613da8f94b9617215ee90799290593e1745087ad18848460405191825260208201526040908101905180910390a3610377610733565b600854600160a060020a03166321e5383a848360405160e060020a63ffffffff8516028152600160a060020a0390921660048301526024820152604401600060405180830381600087803b15156103cd57600080fd5b6102c65a03f115156103de57600080fd5b505050505050565b600854600160a060020a031681565b60045481565b60025481565b60065481565b60055481565b600354600160a060020a031681565b60015481565b600754600160a060020a031681565b60095481565b60075433600160a060020a0390811691161461045257600080fd5b61045a6105e8565b151561046557600080fd5b600160a060020a038116151561047a57600080fd5b600054600160a060020a031663f2fde38b8260405160e060020a63ffffffff8416028152600160a060020a039091166004820152602401600060405180830381600087803b15156104ca57600080fd5b6102c65a03f115156104db57600080fd5b5050600854600160a060020a0316905063f2fde38b8260405160e060020a63ffffffff8416028152600160a060020a039091166004820152602401600060405180830381600087803b151561052f57600080fd5b6102c65a03f1151561054057600080fd5b50505050565b60075460009033600160a060020a0390811691161461056457600080fd5b600754600160a060020a038085169163a9059cbb91168460006040516020015260405160e060020a63ffffffff8516028152600160a060020a0390921660048301526024820152604401602060405180830381600087803b15156105c757600080fd5b6102c65a03f115156105d857600080fd5b5050506040518051949350505050565b60065460055460009190101580806106035750610603610769565b91505090565b60075433600160a060020a0390811691161461062457600080fd5b600160a060020a038116151561063957600080fd5b600754600160a060020a0380831691167f8be0079c531659141344cd1fd0a4f28419497f9722a3daafe3b4186f6b6457e060405160405180910390a36007805473ffffffffffffffffffffffffffffffffffffffff1916600160a060020a0392909216919091179055565b600054600160a060020a031681565b6009546005546006546000923410159183916106d49163ffffffff61077116565b60095490915081116106e557600191505b8180156106f557506106f5610783565b9250505090565b6000610713600454836107b290919063ffffffff16565b92915050565b60008282018381101561072857fe5b8091505b5092915050565b600354600160a060020a03163480156108fc0290604051600060405180830381858888f19350505050151561076757600080fd5b565b600254421190565b60008282111561077d57fe5b50900390565b60008060065461079e3460055461071990919063ffffffff16565b1115905080801561060357506106036107dd565b6000808315156107c5576000915061072c565b508282028284828115156107d557fe5b041461072857fe5b600080600060015442101580156107f657506002544211155b9150503415158180156106f5575092915050565b600061081461082f565b604051809103906000f080151561082a57600080fd5b905090565b6040516110f88061084083390190560060606040526006805460a060020a60ff0219169055341561001f57600080fd5b604080519081016040908152600a82527f536b696c6c636861696e0000000000000000000000000000000000000000000060208301528051908101604052600381527f534b49000000000000000000000000000000000000000000000000000000000060208201526012600083805161009c9291602001906100e7565b5060018280516100b09291602001906100e7565b506002805460ff191660ff92909216919091179055505060068054600160a060020a03191633600160a060020a0316179055610182565b828054600181600116156101000203166002900490600052602060002090601f016020900481019282601f1061012857805160ff1916838001178555610155565b82800160010185558215610155579182015b8281111561015557825182559160200191906001019061013a565b50610161929150610165565b5090565b61017f91905b80821115610161576000815560010161016b565b90565b610f6680620001926000396000f3006060604052600436106100ed5763ffffffff60e060020a60003504166305d2035b81146100f257806306fdde0314610119578063095ea7b3146101a357806318160ddd146101c557806323b872dd146101ea578063313ce5671461021257806340c10f191461023b57806342966c681461025d578063661884631461027557806370a08231146102975780637d64bcb4146102b65780638da5cb5b146102c957806395d89b41146102f8578063a9059cbb1461030b578063cae9ca511461032d578063d73dd62314610392578063dc39d06d146103b4578063dd62ed3e146103d6578063f2fde38b146103fb575b600080fd5b34156100fd57600080fd5b61010561041a565b604051901515815260200160405180910390f35b341561012457600080fd5b61012c61042a565b60405160208082528190810183818151815260200191508051906020019080838360005b83811015610168578082015183820152602001610150565b50505050905090810190601f1680156101955780820380516001836020036101000a031916815260200191505b509250505060405180910390f35b34156101ae57600080fd5b610105600160a060020a03600435166024356104c8565b34156101d057600080fd5b6101d8610534565b60405190815260200160405180910390f35b34156101f557600080fd5b610105600160a060020a036004358116906024351660443561053a565b341561021d57600080fd5b610225610568565b60405160ff909116815260200160405180910390f35b341561024657600080fd5b610105600160a060020a0360043516602435610571565b341561026857600080fd5b61027360043561067f565b005b341561028057600080fd5b610105600160a060020a0360043516602435610739565b34156102a257600080fd5b6101d8600160a060020a0360043516610833565b34156102c157600080fd5b61010561084e565b34156102d457600080fd5b6102dc6108d9565b604051600160a060020a03909116815260200160405180910390f35b341561030357600080fd5b61012c6108e8565b341561031657600080fd5b610105600160a060020a0360043516602435610953565b341561033857600080fd5b61010560048035600160a060020a03169060248035919060649060443590810190830135806020601f8201819004810201604051908101604052818152929190602084018383808284375094965061097f95505050505050565b341561039d57600080fd5b610105600160a060020a0360043516602435610a90565b34156103bf57600080fd5b610105600160a060020a0360043516602435610b34565b34156103e157600080fd5b6101d8600160a060020a0360043581169060243516610bd6565b341561040657600080fd5b610273600160a060020a0360043516610c01565b60065460a060020a900460ff1681565b60008054600181600116156101000203166002900480601f0160208091040260200160405190810160405280929190818152602001828054600181600116156101000203166002900480156104c05780601f10610495576101008083540402835291602001916104c0565b820191906000526020600020905b8154815290600101906020018083116104a357829003601f168201915b505050505081565b600160a060020a03338116600081815260056020908152604080832094871680845294909152808220859055909291907f8c5be1e5ebec7d5bd14f71427d1e84f3dd0314c0f7b2291e5b200ac8c7c3b9259085905190815260200160405180910390a350600192915050565b60045490565b60065460009060a060020a900460ff16151561055557600080fd5b610560848484610c9c565b949350505050565b60025460ff1681565b60065460009033600160a060020a0390811691161461058f57600080fd5b60065460a060020a900460ff16156105a657600080fd5b6004546105b9908363ffffffff610e1e16565b600455600160a060020a0383166000908152600360205260409020546105e5908363ffffffff610e1e16565b600160a060020a0384166000818152600360205260409081902092909255907f0f6798a560793a54c3bcfe86a93cde1e73087d944c0ea20544137d41213968859084905190815260200160405180910390a2600160a060020a03831660007fddf252ad1be2c89b69c2b068fc378daa952ba7f163c4a11628f55a4df523b3ef8460405190815260200160405180910390a350600192915050565b600160a060020a0333166000908152600360205260408120548211156106a457600080fd5b5033600160a060020a0381166000908152600360205260409020546106c99083610e2d565b600160a060020a0382166000908152600360205260409020556004546106f5908363ffffffff610e2d16565b600455600160a060020a0381167fcc16f5dbb4873280815c1ee09dbd06736cffcc184412cf7a71a0fdb75d397ca58360405190815260200160405180910390a25050565b600160a060020a0333811660009081526005602090815260408083209386168352929052908120548083111561079657600160a060020a0333811660009081526005602090815260408083209388168352929052908120556107cd565b6107a6818463ffffffff610e2d16565b600160a060020a033381166000908152600560209081526040808320938916835292905220555b600160a060020a0333811660008181526005602090815260408083209489168084529490915290819020547f8c5be1e5ebec7d5bd14f71427d1e84f3dd0314c0f7b2291e5b200ac8c7c3b925915190815260200160405180910390a35060019392505050565b600160a060020a031660009081526003602052604090205490565b60065460009033600160a060020a0390811691161461086c57600080fd5b60065460a060020a900460ff161561088357600080fd5b6006805474ff0000000000000000000000000000000000000000191660a060020a1790557fae5184fba832cb2b1f702aca6117b8d265eaf03ad33eb133f19dde0f5920fa0860405160405180910390a150600190565b600654600160a060020a031681565b60018054600181600116156101000203166002900480601f0160208091040260200160405190810160405280929190818152602001828054600181600116156101000203166002900480156104c05780601f10610495576101008083540402835291602001916104c0565b60065460009060a060020a900460ff16151561096e57600080fd5b6109788383610e3f565b9392505050565b600061098b84846104c8565b5083600160a060020a0316638f4ffcb1338530866040518563ffffffff1660e060020a0281526004018085600160a060020a0316600160a060020a0316815260200184815260200183600160a060020a0316600160a060020a0316815260200180602001828103825283818151815260200191508051906020019080838360005b83811015610a24578082015183820152602001610a0c565b50505050905090810190601f168015610a515780820380516001836020036101000a031916815260200191505b5095505050505050600060405180830381600087803b1515610a7257600080fd5b6102c65a03f11515610a8357600080fd5b5060019695505050505050565b600160a060020a033381166000908152600560209081526040808320938616835292905290812054610ac8908363ffffffff610e1e16565b600160a060020a0333811660008181526005602090815260408083209489168084529490915290819020849055919290917f8c5be1e5ebec7d5bd14f71427d1e84f3dd0314c0f7b2291e5b200ac8c7c3b92591905190815260200160405180910390a350600192915050565b60065460009033600160a060020a03908116911614610b5257600080fd5b600654600160a060020a038085169163a9059cbb91168460006040516020015260405160e060020a63ffffffff8516028152600160a060020a0390921660048301526024820152604401602060405180830381600087803b1515610bb557600080fd5b6102c65a03f11515610bc657600080fd5b5050506040518051949350505050565b600160a060020a03918216600090815260056020908152604080832093909416825291909152205490565b60065433600160a060020a03908116911614610c1c57600080fd5b600160a060020a0381161515610c3157600080fd5b600654600160a060020a0380831691167f8be0079c531659141344cd1fd0a4f28419497f9722a3daafe3b4186f6b6457e060405160405180910390a36006805473ffffffffffffffffffffffffffffffffffffffff1916600160a060020a0392909216919091179055565b6000600160a060020a0383161515610cb357600080fd5b600160a060020a038416600090815260036020526040902054821115610cd857600080fd5b600160a060020a0380851660009081526005602090815260408083203390941683529290522054821115610d0b57600080fd5b600160a060020a038416600090815260036020526040902054610d34908363ffffffff610e2d16565b600160a060020a038086166000908152600360205260408082209390935590851681522054610d69908363ffffffff610e1e16565b600160a060020a03808516600090815260036020908152604080832094909455878316825260058152838220339093168252919091522054610db1908363ffffffff610e2d16565b600160a060020a03808616600081815260056020908152604080832033861684529091529081902093909355908516917fddf252ad1be2c89b69c2b068fc378daa952ba7f163c4a11628f55a4df523b3ef9085905190815260200160405180910390a35060019392505050565b60008282018381101561097857fe5b600082821115610e3957fe5b50900390565b6000600160a060020a0383161515610e5657600080fd5b600160a060020a033316600090815260036020526040902054821115610e7b57600080fd5b600160a060020a033316600090815260036020526040902054610ea4908363ffffffff610e2d16565b600160a060020a033381166000908152600360205260408082209390935590851681522054610ed9908363ffffffff610e1e16565b600160a060020a0380851660008181526003602052604090819020939093559133909116907fddf252ad1be2c89b69c2b068fc378daa952ba7f163c4a11628f55a4df523b3ef9085905190815260200160405180910390a3506001929150505600a165627a7a7230582060288ab3283834f86ffeb0db67eb578cd6a7f3d295ea0d997b4a3665de1555220029a165627a7a723058206978701c43cb9d5d5eef45799866c4ed7a6e5cfbaba6f27eef1e626041c37cb000296060604052341561000f57600080fd5b60008054600160a060020a033316600160a060020a03199091161790556103918061003b6000396000f3006060604052600436106100775763ffffffff7c010000000000000000000000000000000000000000000000000000000060003504166321e5383a811461007c5780634ab6d337146100a0578063523fba7f146100c55780638da5cb5b146100e4578063edf26d9b14610113578063f2fde38b14610129575b600080fd5b341561008757600080fd5b61009e600160a060020a0360043516602435610148565b005b34156100ab57600080fd5b6100b361021d565b60405190815260200160405180910390f35b34156100d057600080fd5b6100b3600160a060020a0360043516610224565b34156100ef57600080fd5b6100f7610236565b604051600160a060020a03909116815260200160405180910390f35b341561011e57600080fd5b6100f7600435610245565b341561013457600080fd5b61009e600160a060020a036004351661026d565b60005433600160a060020a0390811691161461016357600080fd5b6000811161017057600080fd5b600160a060020a03821660009081526001602052604090205415156101d45760028054600181016101a1838261031e565b506000918252602090912001805473ffffffffffffffffffffffffffffffffffffffff1916600160a060020a0384161790555b600160a060020a0382166000908152600160205260409020546101fd908263ffffffff61030816565b600160a060020a0390921660009081526001602052604090209190915550565b6002545b90565b60016020526000908152604090205481565b600054600160a060020a031681565b600280548290811061025357fe5b600091825260209091200154600160a060020a0316905081565b60005433600160a060020a0390811691161461028857600080fd5b600160a060020a038116151561029d57600080fd5b600054600160a060020a0380831691167f8be0079c531659141344cd1fd0a4f28419497f9722a3daafe3b4186f6b6457e060405160405180910390a36000805473ffffffffffffffffffffffffffffffffffffffff1916600160a060020a0392909216919091179055565b60008282018381101561031757fe5b9392505050565b81548183558181151161034257600083815260209020610342918101908301610347565b505050565b61022191905b80821115610361576000815560010161034d565b50905600a165627a7a72305820ad6266372df2c421e1fd6a8debd9c2fc115b99ac2ef3206bfd559bfa3250acda002960606040526006805460a060020a60ff0219169055341561001f57600080fd5b604080519081016040908152600a82527f536b696c6c636861696e0000000000000000000000000000000000000000000060208301528051908101604052600381527f534b49000000000000000000000000000000000000000000000000000000000060208201526012600083805161009c9291602001906100e7565b5060018280516100b09291602001906100e7565b506002805460ff191660ff92909216919091179055505060068054600160a060020a03191633600160a060020a0316179055610182565b828054600181600116156101000203166002900490600052602060002090601f016020900481019282601f1061012857805160ff1916838001178555610155565b82800160010185558215610155579182015b8281111561015557825182559160200191906001019061013a565b50610161929150610165565b5090565b61017f91905b80821115610161576000815560010161016b565b90565b610f6680620001926000396000f3006060604052600436106100ed5763ffffffff60e060020a60003504166305d2035b81146100f257806306fdde0314610119578063095ea7b3146101a357806318160ddd146101c557806323b872dd146101ea578063313ce5671461021257806340c10f191461023b57806342966c681461025d578063661884631461027557806370a08231146102975780637d64bcb4146102b65780638da5cb5b146102c957806395d89b41146102f8578063a9059cbb1461030b578063cae9ca511461032d578063d73dd62314610392578063dc39d06d146103b4578063dd62ed3e146103d6578063f2fde38b146103fb575b600080fd5b34156100fd57600080fd5b61010561041a565b604051901515815260200160405180910390f35b341561012457600080fd5b61012c61042a565b60405160208082528190810183818151815260200191508051906020019080838360005b83811015610168578082015183820152602001610150565b50505050905090810190601f1680156101955780820380516001836020036101000a031916815260200191505b509250505060405180910390f35b34156101ae57600080fd5b610105600160a060020a03600435166024356104c8565b34156101d057600080fd5b6101d8610534565b60405190815260200160405180910390f35b34156101f557600080fd5b610105600160a060020a036004358116906024351660443561053a565b341561021d57600080fd5b610225610568565b60405160ff909116815260200160405180910390f35b341561024657600080fd5b610105600160a060020a0360043516602435610571565b341561026857600080fd5b61027360043561067f565b005b341561028057600080fd5b610105600160a060020a0360043516602435610739565b34156102a257600080fd5b6101d8600160a060020a0360043516610833565b34156102c157600080fd5b61010561084e565b34156102d457600080fd5b6102dc6108d9565b604051600160a060020a03909116815260200160405180910390f35b341561030357600080fd5b61012c6108e8565b341561031657600080fd5b610105600160a060020a0360043516602435610953565b341561033857600080fd5b61010560048035600160a060020a03169060248035919060649060443590810190830135806020601f8201819004810201604051908101604052818152929190602084018383808284375094965061097f95505050505050565b341561039d57600080fd5b610105600160a060020a0360043516602435610a90565b34156103bf57600080fd5b610105600160a060020a0360043516602435610b34565b34156103e157600080fd5b6101d8600160a060020a0360043581169060243516610bd6565b341561040657600080fd5b610273600160a060020a0360043516610c01565b60065460a060020a900460ff1681565b60008054600181600116156101000203166002900480601f0160208091040260200160405190810160405280929190818152602001828054600181600116156101000203166002900480156104c05780601f10610495576101008083540402835291602001916104c0565b820191906000526020600020905b8154815290600101906020018083116104a357829003601f168201915b505050505081565b600160a060020a03338116600081815260056020908152604080832094871680845294909152808220859055909291907f8c5be1e5ebec7d5bd14f71427d1e84f3dd0314c0f7b2291e5b200ac8c7c3b9259085905190815260200160405180910390a350600192915050565b60045490565b60065460009060a060020a900460ff16151561055557600080fd5b610560848484610c9c565b949350505050565b60025460ff1681565b60065460009033600160a060020a0390811691161461058f57600080fd5b60065460a060020a900460ff16156105a657600080fd5b6004546105b9908363ffffffff610e1e16565b600455600160a060020a0383166000908152600360205260409020546105e5908363ffffffff610e1e16565b600160a060020a0384166000818152600360205260409081902092909255907f0f6798a560793a54c3bcfe86a93cde1e73087d944c0ea20544137d41213968859084905190815260200160405180910390a2600160a060020a03831660007fddf252ad1be2c89b69c2b068fc378daa952ba7f163c4a11628f55a4df523b3ef8460405190815260200160405180910390a350600192915050565b600160a060020a0333166000908152600360205260408120548211156106a457600080fd5b5033600160a060020a0381166000908152600360205260409020546106c99083610e2d565b600160a060020a0382166000908152600360205260409020556004546106f5908363ffffffff610e2d16565b600455600160a060020a0381167fcc16f5dbb4873280815c1ee09dbd06736cffcc184412cf7a71a0fdb75d397ca58360405190815260200160405180910390a25050565b600160a060020a0333811660009081526005602090815260408083209386168352929052908120548083111561079657600160a060020a0333811660009081526005602090815260408083209388168352929052908120556107cd565b6107a6818463ffffffff610e2d16565b600160a060020a033381166000908152600560209081526040808320938916835292905220555b600160a060020a0333811660008181526005602090815260408083209489168084529490915290819020547f8c5be1e5ebec7d5bd14f71427d1e84f3dd0314c0f7b2291e5b200ac8c7c3b925915190815260200160405180910390a35060019392505050565b600160a060020a031660009081526003602052604090205490565b60065460009033600160a060020a0390811691161461086c57600080fd5b60065460a060020a900460ff161561088357600080fd5b6006805474ff0000000000000000000000000000000000000000191660a060020a1790557fae5184fba832cb2b1f702aca6117b8d265eaf03ad33eb133f19dde0f5920fa0860405160405180910390a150600190565b600654600160a060020a031681565b60018054600181600116156101000203166002900480601f0160208091040260200160405190810160405280929190818152602001828054600181600116156101000203166002900480156104c05780601f10610495576101008083540402835291602001916104c0565b60065460009060a060020a900460ff16151561096e57600080fd5b6109788383610e3f565b9392505050565b600061098b84846104c8565b5083600160a060020a0316638f4ffcb1338530866040518563ffffffff1660e060020a0281526004018085600160a060020a0316600160a060020a0316815260200184815260200183600160a060020a0316600160a060020a0316815260200180602001828103825283818151815260200191508051906020019080838360005b83811015610a24578082015183820152602001610a0c565b50505050905090810190601f168015610a515780820380516001836020036101000a031916815260200191505b5095505050505050600060405180830381600087803b1515610a7257600080fd5b6102c65a03f11515610a8357600080fd5b5060019695505050505050565b600160a060020a033381166000908152600560209081526040808320938616835292905290812054610ac8908363ffffffff610e1e16565b600160a060020a0333811660008181526005602090815260408083209489168084529490915290819020849055919290917f8c5be1e5ebec7d5bd14f71427d1e84f3dd0314c0f7b2291e5b200ac8c7c3b92591905190815260200160405180910390a350600192915050565b60065460009033600160a060020a03908116911614610b5257600080fd5b600654600160a060020a038085169163a9059cbb91168460006040516020015260405160e060020a63ffffffff8516028152600160a060020a0390921660048301526024820152604401602060405180830381600087803b1515610bb557600080fd5b6102c65a03f11515610bc657600080fd5b5050506040518051949350505050565b600160a060020a03918216600090815260056020908152604080832093909416825291909152205490565b60065433600160a060020a03908116911614610c1c57600080fd5b600160a060020a0381161515610c3157600080fd5b600654600160a060020a0380831691167f8be0079c531659141344cd1fd0a4f28419497f9722a3daafe3b4186f6b6457e060405160405180910390a36006805473ffffffffffffffffffffffffffffffffffffffff1916600160a060020a0392909216919091179055565b6000600160a060020a0383161515610cb357600080fd5b600160a060020a038416600090815260036020526040902054821115610cd857600080fd5b600160a060020a0380851660009081526005602090815260408083203390941683529290522054821115610d0b57600080fd5b600160a060020a038416600090815260036020526040902054610d34908363ffffffff610e2d16565b600160a060020a038086166000908152600360205260408082209390935590851681522054610d69908363ffffffff610e1e16565b600160a060020a03808516600090815260036020908152604080832094909455878316825260058152838220339093168252919091522054610db1908363ffffffff610e2d16565b600160a060020a03808616600081815260056020908152604080832033861684529091529081902093909355908516917fddf252ad1be2c89b69c2b068fc378daa952ba7f163c4a11628f55a4df523b3ef9085905190815260200160405180910390a35060019392505050565b60008282018381101561097857fe5b600082821115610e3957fe5b50900390565b6000600160a060020a0383161515610e5657600080fd5b600160a060020a033316600090815260036020526040902054821115610e7b57600080fd5b600160a060020a033316600090815260036020526040902054610ea4908363ffffffff610e2d16565b600160a060020a033381166000908152600360205260408082209390935590851681522054610ed9908363ffffffff610e1e16565b600160a060020a0380851660008181526003602052604090819020939093559133909116907fddf252ad1be2c89b69c2b068fc378daa952ba7f163c4a11628f55a4df523b3ef9085905190815260200160405180910390a3506001929150505600a165627a7a7230582060288ab3283834f86ffeb0db67eb578cd6a7f3d295ea0d997b4a3665de1555220029",
  "source": "pragma solidity ^0.4.19;\n\nimport \"./SkillChainContributions.sol\";\nimport \"./SkillChainToken.sol\";\nimport \"zeppelin-solidity/contracts/crowdsale/CappedCrowdsale.sol\";\n\n\ncontract SkillChainPrivateSale is CappedCrowdsale, Ownable {\n\n    SkillChainContributions public contributions;\n\n    uint256 public minimumContribution = 2 ether;\n\n    function SkillChainPrivateSale(\n        uint256 _startTime,\n        uint256 _endTime,\n        uint256 _rate,\n        address _wallet,\n        uint256 _cap\n    )\n    CappedCrowdsale(_cap)\n    Crowdsale(_startTime, _endTime, _rate, _wallet)\n    public\n    {\n        contributions = new SkillChainContributions();\n    }\n\n    // low level token purchase function\n    function buyTokens(address beneficiary) public payable {\n        require(beneficiary != address(0));\n        require(validPurchase());\n\n        uint256 weiAmount = msg.value;\n\n        // calculate token amount to be created\n        uint256 tokens = getTokenAmount(weiAmount);\n\n        // update state\n        weiRaised = weiRaised.add(weiAmount);\n\n        token.mint(beneficiary, tokens);\n        TokenPurchase(\n            msg.sender,\n            beneficiary,\n            weiAmount,\n            tokens\n        );\n\n        forwardFunds();\n\n        // log contribution\n        contributions.addBalance(beneficiary, tokens);\n    }\n\n    // close private sale and transfer token ownership to the presale contract\n    function closeTokenSale(address _presaleContract) onlyOwner public {\n        require(hasEnded());\n        require(_presaleContract != address(0));\n\n        token.transferOwnership(_presaleContract);\n        contributions.transferOwnership(_presaleContract);\n    }\n\n    function transferAnyERC20Token(address _tokenAddress, uint256 _tokens) onlyOwner public returns (bool success) {\n        return ERC20Basic(_tokenAddress).transfer(owner, _tokens);\n    }\n\n    /**\n     * @dev Create new instance of token contract\n     */\n    function createTokenContract() internal returns (MintableToken) {\n        return new SkillChainToken();\n    }\n\n    // overriding CappedCrowdsale#validPurchase to add extra cap logic\n    // @return true if investors are sending more than minimum contribution\n    function validPurchase() internal view returns (bool) {\n        bool validContribution = msg.value >= minimumContribution;\n\n        uint256 remainingBalance = cap.sub(weiRaised);\n        if (remainingBalance <= minimumContribution) {\n            validContribution = true;\n        }\n\n        return validContribution && super.validPurchase();\n    }\n}\n",
  "sourcePath": "/Applications/MAMP/htdocs/solidity/skillchain-smartcontracts/contracts/SkillChainPrivateSale.sol",
  "compiler": {
    "name": "solc",
    "version": "0.4.19+commit.c4cbbb05.Emscripten.clang"
  },
  "schemaVersion": "1.0.1",
  "updatedAt": "2018-02-19T11:02:32.415Z"
}