{
  "contractName": "SkillChainContributions",
  "abi": [
    {
      "constant": true,
      "inputs": [
        {
          "name": "",
          "type": "address"
        }
      ],
      "name": "tokenBalances",
      "outputs": [
        {
          "name": "",
          "type": "uint256"
        }
      ],
      "payable": false,
      "stateMutability": "view",
      "type": "function"
    },
    {
      "constant": true,
      "inputs": [],
      "name": "owner",
      "outputs": [
        {
          "name": "",
          "type": "address"
        }
      ],
      "payable": false,
      "stateMutability": "view",
      "type": "function"
    },
    {
      "constant": true,
      "inputs": [
        {
          "name": "",
          "type": "uint256"
        }
      ],
      "name": "addresses",
      "outputs": [
        {
          "name": "",
          "type": "address"
        }
      ],
      "payable": false,
      "stateMutability": "view",
      "type": "function"
    },
    {
      "constant": false,
      "inputs": [
        {
          "name": "newOwner",
          "type": "address"
        }
      ],
      "name": "transferOwnership",
      "outputs": [],
      "payable": false,
      "stateMutability": "nonpayable",
      "type": "function"
    },
    {
      "inputs": [],
      "payable": false,
      "stateMutability": "nonpayable",
      "type": "constructor"
    },
    {
      "anonymous": false,
      "inputs": [
        {
          "indexed": true,
          "name": "previousOwner",
          "type": "address"
        },
        {
          "indexed": true,
          "name": "newOwner",
          "type": "address"
        }
      ],
      "name": "OwnershipTransferred",
      "type": "event"
    },
    {
      "constant": false,
      "inputs": [
        {
          "name": "_address",
          "type": "address"
        },
        {
          "name": "_tokenAmount",
          "type": "uint256"
        }
      ],
      "name": "addBalance",
      "outputs": [],
      "payable": false,
      "stateMutability": "nonpayable",
      "type": "function"
    },
    {
      "constant": true,
      "inputs": [],
      "name": "getContributorsLength",
      "outputs": [
        {
          "name": "",
          "type": "uint256"
        }
      ],
      "payable": false,
      "stateMutability": "view",
      "type": "function"
    }
  ],
  "bytecode": "0x6060604052341561000f57600080fd5b60008054600160a060020a033316600160a060020a03199091161790556103918061003b6000396000f3006060604052600436106100775763ffffffff7c010000000000000000000000000000000000000000000000000000000060003504166321e5383a811461007c5780634ab6d337146100a0578063523fba7f146100c55780638da5cb5b146100e4578063edf26d9b14610113578063f2fde38b14610129575b600080fd5b341561008757600080fd5b61009e600160a060020a0360043516602435610148565b005b34156100ab57600080fd5b6100b361021d565b60405190815260200160405180910390f35b34156100d057600080fd5b6100b3600160a060020a0360043516610224565b34156100ef57600080fd5b6100f7610236565b604051600160a060020a03909116815260200160405180910390f35b341561011e57600080fd5b6100f7600435610245565b341561013457600080fd5b61009e600160a060020a036004351661026d565b60005433600160a060020a0390811691161461016357600080fd5b6000811161017057600080fd5b600160a060020a03821660009081526001602052604090205415156101d45760028054600181016101a1838261031e565b506000918252602090912001805473ffffffffffffffffffffffffffffffffffffffff1916600160a060020a0384161790555b600160a060020a0382166000908152600160205260409020546101fd908263ffffffff61030816565b600160a060020a0390921660009081526001602052604090209190915550565b6002545b90565b60016020526000908152604090205481565b600054600160a060020a031681565b600280548290811061025357fe5b600091825260209091200154600160a060020a0316905081565b60005433600160a060020a0390811691161461028857600080fd5b600160a060020a038116151561029d57600080fd5b600054600160a060020a0380831691167f8be0079c531659141344cd1fd0a4f28419497f9722a3daafe3b4186f6b6457e060405160405180910390a36000805473ffffffffffffffffffffffffffffffffffffffff1916600160a060020a0392909216919091179055565b60008282018381101561031757fe5b9392505050565b81548183558181151161034257600083815260209020610342918101908301610347565b505050565b61022191905b80821115610361576000815560010161034d565b50905600a165627a7a72305820ad6266372df2c421e1fd6a8debd9c2fc115b99ac2ef3206bfd559bfa3250acda0029",
  "source": "pragma solidity ^0.4.19;\n\nimport \"zeppelin-solidity/contracts/math/SafeMath.sol\";\nimport \"zeppelin-solidity/contracts/ownership/Ownable.sol\";\n\n\ncontract SkillChainContributions is Ownable {\n    using SafeMath for uint256;\n\n    mapping(address => uint256) public tokenBalances;\n    address[] public addresses;\n\n    function SkillChainContributions() public {}\n\n    function addBalance(address _address, uint256 _tokenAmount) onlyOwner public {\n        require(_tokenAmount > 0);\n\n        if (tokenBalances[_address] == 0) {\n            addresses.push(_address);\n        }\n        tokenBalances[_address] = tokenBalances[_address].add(_tokenAmount);\n    }\n\n    function getContributorsLength() view public returns (uint) {\n        return addresses.length;\n    }\n}\n",
  "sourcePath": "/Applications/MAMP/htdocs/solidity/skillchain-smartcontracts/contracts/SkillChainContributions.sol",
  "compiler": {
    "name": "solc",
    "version": "0.4.19+commit.c4cbbb05.Emscripten.clang"
  },
  "schemaVersion": "1.0.1",
  "updatedAt": "2018-02-19T11:02:32.415Z"
}