{
  "contractName": "SkillChainPresale",
  "abi": [
    {
      "constant": true,
      "inputs": [],
      "name": "contributions",
      "outputs": [
        {
          "name": "",
          "type": "address"
        }
      ],
      "payable": false,
      "stateMutability": "view",
      "type": "function"
    },
    {
      "constant": true,
      "inputs": [],
      "name": "rate",
      "outputs": [
        {
          "name": "",
          "type": "uint256"
        }
      ],
      "payable": false,
      "stateMutability": "view",
      "type": "function"
    },
    {
      "constant": true,
      "inputs": [],
      "name": "endTime",
      "outputs": [
        {
          "name": "",
          "type": "uint256"
        }
      ],
      "payable": false,
      "stateMutability": "view",
      "type": "function"
    },
    {
      "constant": true,
      "inputs": [],
      "name": "cap",
      "outputs": [
        {
          "name": "",
          "type": "uint256"
        }
      ],
      "payable": false,
      "stateMutability": "view",
      "type": "function"
    },
    {
      "constant": true,
      "inputs": [],
      "name": "weiRaised",
      "outputs": [
        {
          "name": "",
          "type": "uint256"
        }
      ],
      "payable": false,
      "stateMutability": "view",
      "type": "function"
    },
    {
      "constant": true,
      "inputs": [],
      "name": "wallet",
      "outputs": [
        {
          "name": "",
          "type": "address"
        }
      ],
      "payable": false,
      "stateMutability": "view",
      "type": "function"
    },
    {
      "constant": true,
      "inputs": [],
      "name": "startTime",
      "outputs": [
        {
          "name": "",
          "type": "uint256"
        }
      ],
      "payable": false,
      "stateMutability": "view",
      "type": "function"
    },
    {
      "constant": true,
      "inputs": [],
      "name": "owner",
      "outputs": [
        {
          "name": "",
          "type": "address"
        }
      ],
      "payable": false,
      "stateMutability": "view",
      "type": "function"
    },
    {
      "constant": true,
      "inputs": [],
      "name": "minimumContribution",
      "outputs": [
        {
          "name": "",
          "type": "uint256"
        }
      ],
      "payable": false,
      "stateMutability": "view",
      "type": "function"
    },
    {
      "constant": true,
      "inputs": [],
      "name": "hasEnded",
      "outputs": [
        {
          "name": "",
          "type": "bool"
        }
      ],
      "payable": false,
      "stateMutability": "view",
      "type": "function"
    },
    {
      "constant": false,
      "inputs": [
        {
          "name": "newOwner",
          "type": "address"
        }
      ],
      "name": "transferOwnership",
      "outputs": [],
      "payable": false,
      "stateMutability": "nonpayable",
      "type": "function"
    },
    {
      "constant": true,
      "inputs": [],
      "name": "token",
      "outputs": [
        {
          "name": "",
          "type": "address"
        }
      ],
      "payable": false,
      "stateMutability": "view",
      "type": "function"
    },
    {
      "inputs": [
        {
          "name": "_startTime",
          "type": "uint256"
        },
        {
          "name": "_endTime",
          "type": "uint256"
        },
        {
          "name": "_rate",
          "type": "uint256"
        },
        {
          "name": "_wallet",
          "type": "address"
        },
        {
          "name": "_cap",
          "type": "uint256"
        },
        {
          "name": "_token",
          "type": "address"
        },
        {
          "name": "_contributions",
          "type": "address"
        }
      ],
      "payable": false,
      "stateMutability": "nonpayable",
      "type": "constructor"
    },
    {
      "payable": true,
      "stateMutability": "payable",
      "type": "fallback"
    },
    {
      "anonymous": false,
      "inputs": [
        {
          "indexed": true,
          "name": "previousOwner",
          "type": "address"
        },
        {
          "indexed": true,
          "name": "newOwner",
          "type": "address"
        }
      ],
      "name": "OwnershipTransferred",
      "type": "event"
    },
    {
      "anonymous": false,
      "inputs": [
        {
          "indexed": true,
          "name": "purchaser",
          "type": "address"
        },
        {
          "indexed": true,
          "name": "beneficiary",
          "type": "address"
        },
        {
          "indexed": false,
          "name": "value",
          "type": "uint256"
        },
        {
          "indexed": false,
          "name": "amount",
          "type": "uint256"
        }
      ],
      "name": "TokenPurchase",
      "type": "event"
    },
    {
      "constant": false,
      "inputs": [
        {
          "name": "beneficiary",
          "type": "address"
        }
      ],
      "name": "buyTokens",
      "outputs": [],
      "payable": true,
      "stateMutability": "payable",
      "type": "function"
    },
    {
      "constant": false,
      "inputs": [
        {
          "name": "_icoContract",
          "type": "address"
        }
      ],
      "name": "closeTokenSale",
      "outputs": [],
      "payable": false,
      "stateMutability": "nonpayable",
      "type": "function"
    },
    {
      "constant": false,
      "inputs": [
        {
          "name": "_tokenAddress",
          "type": "address"
        },
        {
          "name": "_tokens",
          "type": "uint256"
        }
      ],
      "name": "transferAnyERC20Token",
      "outputs": [
        {
          "name": "success",
          "type": "bool"
        }
      ],
      "payable": false,
      "stateMutability": "nonpayable",
      "type": "function"
    },
    {
      "constant": true,
      "inputs": [],
      "name": "started",
      "outputs": [
        {
          "name": "",
          "type": "bool"
        }
      ],
      "payable": false,
      "stateMutability": "view",
      "type": "function"
    },
    {
      "constant": true,
      "inputs": [],
      "name": "ended",
      "outputs": [
        {
          "name": "",
          "type": "bool"
        }
      ],
      "payable": false,
      "stateMutability": "view",
      "type": "function"
    },
    {
      "constant": true,
      "inputs": [],
      "name": "totalTokens",
      "outputs": [
        {
          "name": "",
          "type": "uint256"
        }
      ],
      "payable": false,
      "stateMutability": "view",
      "type": "function"
    },
    {
      "constant": true,
      "inputs": [],
      "name": "remainingTokens",
      "outputs": [
        {
          "name": "",
          "type": "uint256"
        }
      ],
      "payable": false,
      "stateMutability": "view",
      "type": "function"
    },
    {
      "constant": true,
      "inputs": [],
      "name": "price",
      "outputs": [
        {
          "name": "",
          "type": "uint256"
        }
      ],
      "payable": false,
      "stateMutability": "view",
      "type": "function"
    }
  ],
  "bytecode": "0x6060604052670de0b6b3a7640000600955341561001b57600080fd5b60405160e080610a9b833981016040528080519190602001805191906020018051919060200180519190602001805191906020018051919060200180519150839050878787874284101561006e57600080fd5b8383101561007b57600080fd5b6000821161008857600080fd5b600160a060020a038116151561009d57600080fd5b6100b264010000000061090f61014782021704565b60008054600160a060020a0319908116600160a060020a039384161782556001969096556002949094556004929092556003805490941691161790915581116100fa57600080fd5b60065560078054600160a060020a03338116600160a060020a03199283161790925560008054948316948216949094179093556008805492909116919092161790555061014c9350505050565b600090565b6109408061015b6000396000f3006060604052600436106100f85763ffffffff60e060020a600035041663029eabcb811461010357806312fa6feb146101325780631f2698ab146101595780632c4e722e1461016c5780633197cbb614610191578063355274ea146101a45780634042b66f146101b7578063521eb273146101ca57806378e97925146101dd5780637e1c0c09146101f05780638da5cb5b14610203578063937e09b114610216578063a035b1fe14610229578063bf5839031461023c578063dbf5eb1c1461024f578063dc39d06d1461026e578063ec8ac4d814610290578063ecb70fb7146102a4578063f2fde38b146102b7578063fc0c546a146102d6575b610101336102e9565b005b341561010e57600080fd5b61011661047c565b604051600160a060020a03909116815260200160405180910390f35b341561013d57600080fd5b61014561048b565b604051901515815260200160405180910390f35b341561016457600080fd5b61014561049a565b341561017757600080fd5b61017f6104a3565b60405190815260200160405180910390f35b341561019c57600080fd5b61017f6104a9565b34156101af57600080fd5b61017f6104af565b34156101c257600080fd5b61017f6104b5565b34156101d557600080fd5b6101166104bb565b34156101e857600080fd5b61017f6104ca565b34156101fb57600080fd5b61017f6104d0565b341561020e57600080fd5b6101166104e9565b341561022157600080fd5b61017f6104f8565b341561023457600080fd5b61017f6104fe565b341561024757600080fd5b61017f610504565b341561025a57600080fd5b610101600160a060020a0360043516610541565b341561027957600080fd5b610145600160a060020a0360043516602435610650565b610101600160a060020a03600435166102e9565b34156102af57600080fd5b6101456106f2565b34156102c257600080fd5b610101600160a060020a0360043516610713565b34156102e157600080fd5b6101166107ae565b600080600160a060020a038316151561030157600080fd5b6103096107bd565b151561031457600080fd5b34915061032082610806565b600554909150610336908363ffffffff61082316565b60055560008054600160a060020a0316906340c10f1990859084906040516020015260405160e060020a63ffffffff8516028152600160a060020a0390921660048301526024820152604401602060405180830381600087803b151561039b57600080fd5b6102c65a03f115156103ac57600080fd5b505050604051805190505082600160a060020a031633600160a060020a03167f623b3804fa71d67900d064613da8f94b9617215ee90799290593e1745087ad18848460405191825260208201526040908101905180910390a361040d61083d565b600854600160a060020a03166321e5383a848360405160e060020a63ffffffff8516028152600160a060020a0390921660048301526024820152604401600060405180830381600087803b151561046357600080fd5b6102c65a03f1151561047457600080fd5b505050505050565b600854600160a060020a031681565b60006104956106f2565b905090565b60015442101590565b60045481565b60025481565b60065481565b60055481565b600354600160a060020a031681565b60015481565b600061049560065460045461087390919063ffffffff16565b600754600160a060020a031681565b60095481565b60045490565b600061049561052060055460045461087390919063ffffffff16565b6006546004546105359163ffffffff61087316565b9063ffffffff61089e16565b60075433600160a060020a0390811691161461055c57600080fd5b6105646106f2565b151561056f57600080fd5b600160a060020a038116151561058457600080fd5b600054600160a060020a031663f2fde38b8260405160e060020a63ffffffff8416028152600160a060020a039091166004820152602401600060405180830381600087803b15156105d457600080fd5b6102c65a03f115156105e557600080fd5b5050600854600160a060020a0316905063f2fde38b8260405160e060020a63ffffffff8416028152600160a060020a039091166004820152602401600060405180830381600087803b151561063957600080fd5b6102c65a03f1151561064a57600080fd5b50505050565b60075460009033600160a060020a0390811691161461066e57600080fd5b600754600160a060020a038085169163a9059cbb91168460006040516020015260405160e060020a63ffffffff8516028152600160a060020a0390921660048301526024820152604401602060405180830381600087803b15156106d157600080fd5b6102c65a03f115156106e257600080fd5b5050506040518051949350505050565b600654600554600091901015808061070d575061070d6108b0565b91505090565b60075433600160a060020a0390811691161461072e57600080fd5b600160a060020a038116151561074357600080fd5b600754600160a060020a0380831691167f8be0079c531659141344cd1fd0a4f28419497f9722a3daafe3b4186f6b6457e060405160405180910390a36007805473ffffffffffffffffffffffffffffffffffffffff1916600160a060020a0392909216919091179055565b600054600160a060020a031681565b6009546005546006546000923410159183916107de9163ffffffff61089e16565b60095490915081116107ef57600191505b8180156107ff57506107ff6108b8565b9250505090565b600061081d6004548361087390919063ffffffff16565b92915050565b60008282018381101561083257fe5b8091505b5092915050565b600354600160a060020a03163480156108fc0290604051600060405180830381858888f19350505050151561087157600080fd5b565b6000808315156108865760009150610836565b5082820282848281151561089657fe5b041461083257fe5b6000828211156108aa57fe5b50900390565b600254421190565b6000806006546108d33460055461082390919063ffffffff16565b1115905080801561070d575061070d600080600060015442101580156108fb57506002544211155b9150503415158180156107ff575092915050565b6000905600a165627a7a72305820c3eb0645c995a9a07fdcc3b218c7c735f0ad05006424239ebc5ae93fd44463cd0029",
  "source": "pragma solidity ^0.4.19;\n\nimport \"./SkillChainContributions.sol\";\nimport \"./SkillChainToken.sol\";\nimport \"zeppelin-solidity/contracts/crowdsale/CappedCrowdsale.sol\";\n\n\ncontract SkillChainPresale is CappedCrowdsale, Ownable {\n\n    SkillChainContributions public contributions;\n\n    uint256 public minimumContribution = 1 ether;\n\n    function SkillChainPresale(\n        uint256 _startTime,\n        uint256 _endTime,\n        uint256 _rate,\n        address _wallet,\n        uint256 _cap,\n        address _token,\n        address _contributions\n    )\n    CappedCrowdsale(_cap)\n    Crowdsale(_startTime, _endTime, _rate, _wallet)\n    public\n    {\n        token = SkillChainToken(_token);\n        contributions = SkillChainContributions(_contributions);\n    }\n\n    // low level token purchase function\n    function buyTokens(address beneficiary) public payable {\n        require(beneficiary != address(0));\n        require(validPurchase());\n\n        uint256 weiAmount = msg.value;\n\n        // calculate token amount to be created\n        uint256 tokens = getTokenAmount(weiAmount);\n\n        // update state\n        weiRaised = weiRaised.add(weiAmount);\n\n        token.mint(beneficiary, tokens);\n        TokenPurchase(\n            msg.sender,\n            beneficiary,\n            weiAmount,\n            tokens\n        );\n\n        forwardFunds();\n\n        // log contribution\n        contributions.addBalance(beneficiary, tokens);\n    }\n\n    // close presale and transfer token ownership to the presale contract\n    function closeTokenSale(address _icoContract) onlyOwner public {\n        require(hasEnded());\n        require(_icoContract != address(0));\n\n        token.transferOwnership(_icoContract);\n        contributions.transferOwnership(_icoContract);\n    }\n\n    function transferAnyERC20Token(address _tokenAddress, uint256 _tokens) onlyOwner public returns (bool success) {\n        return ERC20Basic(_tokenAddress).transfer(owner, _tokens);\n    }\n\n    // false if the ico is not started, true if the ico is started and running, true if the ico is completed\n    function started() public view returns(bool) {\n        return now >= startTime;\n    }\n\n    // false if the ico is not started, false if the ico is started and running, true if the ico is completed\n    function ended() public view returns(bool) {\n        return hasEnded();\n    }\n\n    // returns the total number of the tokens available for the sale, must not change when the ico is started\n    function totalTokens() public view returns(uint) {\n        return rate.mul(cap);\n    }\n\n    // returns the number of the tokens available for the ico. At the moment that the ico starts it must be equal to totalTokens(),\n    // then it will decrease. It is used to calculate the percentage of sold tokens as remainingTokens() / totalTokens()\n    function remainingTokens() public view returns(uint) {\n        return rate.mul(cap).sub(rate.mul(weiRaised));\n    }\n\n    // return the price as number of tokens released for each ether\n    function price() public view returns(uint) {\n        return rate;\n    }\n\n    /**\n     * @dev Create new instance of token contract\n     */\n    function createTokenContract() internal returns (MintableToken) {\n        return MintableToken(0);\n    }\n\n    // overriding CappedCrowdsale#validPurchase to add extra cap logic\n    // @return true if investors are sending more than minimum contribution\n    function validPurchase() internal view returns (bool) {\n        bool validContribution = msg.value >= minimumContribution;\n\n        uint256 remainingBalance = cap.sub(weiRaised);\n        if (remainingBalance <= minimumContribution) {\n            validContribution = true;\n        }\n\n        return validContribution && super.validPurchase();\n    }\n}\n",
  "sourcePath": "/Applications/MAMP/htdocs/solidity/skillchain-smartcontracts/contracts/SkillChainPresale.sol",
  "compiler": {
    "name": "solc",
    "version": "0.4.19+commit.c4cbbb05.Emscripten.clang"
  },
  "schemaVersion": "2.0.0",
  "updatedAt": "2018-03-29T11:30:30.847Z"
}