{
  "contractName": "SkillChainToken",
  "abi": [
    {
      "constant": true,
      "inputs": [],
      "name": "mintingFinished",
      "outputs": [
        {
          "name": "",
          "type": "bool"
        }
      ],
      "payable": false,
      "stateMutability": "view",
      "type": "function"
    },
    {
      "constant": true,
      "inputs": [],
      "name": "name",
      "outputs": [
        {
          "name": "",
          "type": "string"
        }
      ],
      "payable": false,
      "stateMutability": "view",
      "type": "function"
    },
    {
      "constant": false,
      "inputs": [
        {
          "name": "_spender",
          "type": "address"
        },
        {
          "name": "_value",
          "type": "uint256"
        }
      ],
      "name": "approve",
      "outputs": [
        {
          "name": "",
          "type": "bool"
        }
      ],
      "payable": false,
      "stateMutability": "nonpayable",
      "type": "function"
    },
    {
      "constant": true,
      "inputs": [],
      "name": "totalSupply",
      "outputs": [
        {
          "name": "",
          "type": "uint256"
        }
      ],
      "payable": false,
      "stateMutability": "view",
      "type": "function"
    },
    {
      "constant": true,
      "inputs": [],
      "name": "decimals",
      "outputs": [
        {
          "name": "",
          "type": "uint8"
        }
      ],
      "payable": false,
      "stateMutability": "view",
      "type": "function"
    },
    {
      "constant": false,
      "inputs": [
        {
          "name": "_to",
          "type": "address"
        },
        {
          "name": "_amount",
          "type": "uint256"
        }
      ],
      "name": "mint",
      "outputs": [
        {
          "name": "",
          "type": "bool"
        }
      ],
      "payable": false,
      "stateMutability": "nonpayable",
      "type": "function"
    },
    {
      "constant": false,
      "inputs": [
        {
          "name": "_value",
          "type": "uint256"
        }
      ],
      "name": "burn",
      "outputs": [],
      "payable": false,
      "stateMutability": "nonpayable",
      "type": "function"
    },
    {
      "constant": false,
      "inputs": [
        {
          "name": "_spender",
          "type": "address"
        },
        {
          "name": "_subtractedValue",
          "type": "uint256"
        }
      ],
      "name": "decreaseApproval",
      "outputs": [
        {
          "name": "",
          "type": "bool"
        }
      ],
      "payable": false,
      "stateMutability": "nonpayable",
      "type": "function"
    },
    {
      "constant": true,
      "inputs": [
        {
          "name": "_owner",
          "type": "address"
        }
      ],
      "name": "balanceOf",
      "outputs": [
        {
          "name": "balance",
          "type": "uint256"
        }
      ],
      "payable": false,
      "stateMutability": "view",
      "type": "function"
    },
    {
      "constant": false,
      "inputs": [],
      "name": "finishMinting",
      "outputs": [
        {
          "name": "",
          "type": "bool"
        }
      ],
      "payable": false,
      "stateMutability": "nonpayable",
      "type": "function"
    },
    {
      "constant": true,
      "inputs": [],
      "name": "owner",
      "outputs": [
        {
          "name": "",
          "type": "address"
        }
      ],
      "payable": false,
      "stateMutability": "view",
      "type": "function"
    },
    {
      "constant": true,
      "inputs": [],
      "name": "symbol",
      "outputs": [
        {
          "name": "",
          "type": "string"
        }
      ],
      "payable": false,
      "stateMutability": "view",
      "type": "function"
    },
    {
      "constant": false,
      "inputs": [
        {
          "name": "_spender",
          "type": "address"
        },
        {
          "name": "_addedValue",
          "type": "uint256"
        }
      ],
      "name": "increaseApproval",
      "outputs": [
        {
          "name": "",
          "type": "bool"
        }
      ],
      "payable": false,
      "stateMutability": "nonpayable",
      "type": "function"
    },
    {
      "constant": true,
      "inputs": [
        {
          "name": "_owner",
          "type": "address"
        },
        {
          "name": "_spender",
          "type": "address"
        }
      ],
      "name": "allowance",
      "outputs": [
        {
          "name": "",
          "type": "uint256"
        }
      ],
      "payable": false,
      "stateMutability": "view",
      "type": "function"
    },
    {
      "constant": false,
      "inputs": [
        {
          "name": "newOwner",
          "type": "address"
        }
      ],
      "name": "transferOwnership",
      "outputs": [],
      "payable": false,
      "stateMutability": "nonpayable",
      "type": "function"
    },
    {
      "inputs": [],
      "payable": false,
      "stateMutability": "nonpayable",
      "type": "constructor"
    },
    {
      "anonymous": false,
      "inputs": [
        {
          "indexed": true,
          "name": "burner",
          "type": "address"
        },
        {
          "indexed": false,
          "name": "value",
          "type": "uint256"
        }
      ],
      "name": "Burn",
      "type": "event"
    },
    {
      "anonymous": false,
      "inputs": [
        {
          "indexed": true,
          "name": "to",
          "type": "address"
        },
        {
          "indexed": false,
          "name": "amount",
          "type": "uint256"
        }
      ],
      "name": "Mint",
      "type": "event"
    },
    {
      "anonymous": false,
      "inputs": [],
      "name": "MintFinished",
      "type": "event"
    },
    {
      "anonymous": false,
      "inputs": [
        {
          "indexed": true,
          "name": "previousOwner",
          "type": "address"
        },
        {
          "indexed": true,
          "name": "newOwner",
          "type": "address"
        }
      ],
      "name": "OwnershipTransferred",
      "type": "event"
    },
    {
      "anonymous": false,
      "inputs": [
        {
          "indexed": true,
          "name": "owner",
          "type": "address"
        },
        {
          "indexed": true,
          "name": "spender",
          "type": "address"
        },
        {
          "indexed": false,
          "name": "value",
          "type": "uint256"
        }
      ],
      "name": "Approval",
      "type": "event"
    },
    {
      "anonymous": false,
      "inputs": [
        {
          "indexed": true,
          "name": "from",
          "type": "address"
        },
        {
          "indexed": true,
          "name": "to",
          "type": "address"
        },
        {
          "indexed": false,
          "name": "value",
          "type": "uint256"
        }
      ],
      "name": "Transfer",
      "type": "event"
    },
    {
      "constant": false,
      "inputs": [
        {
          "name": "_to",
          "type": "address"
        },
        {
          "name": "_value",
          "type": "uint256"
        }
      ],
      "name": "transfer",
      "outputs": [
        {
          "name": "",
          "type": "bool"
        }
      ],
      "payable": false,
      "stateMutability": "nonpayable",
      "type": "function"
    },
    {
      "constant": false,
      "inputs": [
        {
          "name": "_from",
          "type": "address"
        },
        {
          "name": "_to",
          "type": "address"
        },
        {
          "name": "_value",
          "type": "uint256"
        }
      ],
      "name": "transferFrom",
      "outputs": [
        {
          "name": "",
          "type": "bool"
        }
      ],
      "payable": false,
      "stateMutability": "nonpayable",
      "type": "function"
    },
    {
      "constant": false,
      "inputs": [
        {
          "name": "_spender",
          "type": "address"
        },
        {
          "name": "_tokens",
          "type": "uint256"
        },
        {
          "name": "_data",
          "type": "bytes"
        }
      ],
      "name": "approveAndCall",
      "outputs": [
        {
          "name": "success",
          "type": "bool"
        }
      ],
      "payable": false,
      "stateMutability": "nonpayable",
      "type": "function"
    },
    {
      "constant": false,
      "inputs": [
        {
          "name": "_tokenAddress",
          "type": "address"
        },
        {
          "name": "_tokens",
          "type": "uint256"
        }
      ],
      "name": "transferAnyERC20Token",
      "outputs": [
        {
          "name": "success",
          "type": "bool"
        }
      ],
      "payable": false,
      "stateMutability": "nonpayable",
      "type": "function"
    }
  ],
  "bytecode": "0x60606040526006805460a060020a60ff0219169055341561001f57600080fd5b604080519081016040908152600a82527f536b696c6c636861696e0000000000000000000000000000000000000000000060208301528051908101604052600381527f534b49000000000000000000000000000000000000000000000000000000000060208201526012600083805161009c9291602001906100e7565b5060018280516100b09291602001906100e7565b506002805460ff191660ff92909216919091179055505060068054600160a060020a03191633600160a060020a0316179055610182565b828054600181600116156101000203166002900490600052602060002090601f016020900481019282601f1061012857805160ff1916838001178555610155565b82800160010185558215610155579182015b8281111561015557825182559160200191906001019061013a565b50610161929150610165565b5090565b61017f91905b80821115610161576000815560010161016b565b90565b610f6680620001926000396000f3006060604052600436106100ed5763ffffffff60e060020a60003504166305d2035b81146100f257806306fdde0314610119578063095ea7b3146101a357806318160ddd146101c557806323b872dd146101ea578063313ce5671461021257806340c10f191461023b57806342966c681461025d578063661884631461027557806370a08231146102975780637d64bcb4146102b65780638da5cb5b146102c957806395d89b41146102f8578063a9059cbb1461030b578063cae9ca511461032d578063d73dd62314610392578063dc39d06d146103b4578063dd62ed3e146103d6578063f2fde38b146103fb575b600080fd5b34156100fd57600080fd5b61010561041a565b604051901515815260200160405180910390f35b341561012457600080fd5b61012c61042a565b60405160208082528190810183818151815260200191508051906020019080838360005b83811015610168578082015183820152602001610150565b50505050905090810190601f1680156101955780820380516001836020036101000a031916815260200191505b509250505060405180910390f35b34156101ae57600080fd5b610105600160a060020a03600435166024356104c8565b34156101d057600080fd5b6101d8610534565b60405190815260200160405180910390f35b34156101f557600080fd5b610105600160a060020a036004358116906024351660443561053a565b341561021d57600080fd5b610225610568565b60405160ff909116815260200160405180910390f35b341561024657600080fd5b610105600160a060020a0360043516602435610571565b341561026857600080fd5b61027360043561067f565b005b341561028057600080fd5b610105600160a060020a0360043516602435610739565b34156102a257600080fd5b6101d8600160a060020a0360043516610833565b34156102c157600080fd5b61010561084e565b34156102d457600080fd5b6102dc6108d9565b604051600160a060020a03909116815260200160405180910390f35b341561030357600080fd5b61012c6108e8565b341561031657600080fd5b610105600160a060020a0360043516602435610953565b341561033857600080fd5b61010560048035600160a060020a03169060248035919060649060443590810190830135806020601f8201819004810201604051908101604052818152929190602084018383808284375094965061097f95505050505050565b341561039d57600080fd5b610105600160a060020a0360043516602435610a90565b34156103bf57600080fd5b610105600160a060020a0360043516602435610b34565b34156103e157600080fd5b6101d8600160a060020a0360043581169060243516610bd6565b341561040657600080fd5b610273600160a060020a0360043516610c01565b60065460a060020a900460ff1681565b60008054600181600116156101000203166002900480601f0160208091040260200160405190810160405280929190818152602001828054600181600116156101000203166002900480156104c05780601f10610495576101008083540402835291602001916104c0565b820191906000526020600020905b8154815290600101906020018083116104a357829003601f168201915b505050505081565b600160a060020a03338116600081815260056020908152604080832094871680845294909152808220859055909291907f8c5be1e5ebec7d5bd14f71427d1e84f3dd0314c0f7b2291e5b200ac8c7c3b9259085905190815260200160405180910390a350600192915050565b60045490565b60065460009060a060020a900460ff16151561055557600080fd5b610560848484610c9c565b949350505050565b60025460ff1681565b60065460009033600160a060020a0390811691161461058f57600080fd5b60065460a060020a900460ff16156105a657600080fd5b6004546105b9908363ffffffff610e1e16565b600455600160a060020a0383166000908152600360205260409020546105e5908363ffffffff610e1e16565b600160a060020a0384166000818152600360205260409081902092909255907f0f6798a560793a54c3bcfe86a93cde1e73087d944c0ea20544137d41213968859084905190815260200160405180910390a2600160a060020a03831660007fddf252ad1be2c89b69c2b068fc378daa952ba7f163c4a11628f55a4df523b3ef8460405190815260200160405180910390a350600192915050565b600160a060020a0333166000908152600360205260408120548211156106a457600080fd5b5033600160a060020a0381166000908152600360205260409020546106c99083610e2d565b600160a060020a0382166000908152600360205260409020556004546106f5908363ffffffff610e2d16565b600455600160a060020a0381167fcc16f5dbb4873280815c1ee09dbd06736cffcc184412cf7a71a0fdb75d397ca58360405190815260200160405180910390a25050565b600160a060020a0333811660009081526005602090815260408083209386168352929052908120548083111561079657600160a060020a0333811660009081526005602090815260408083209388168352929052908120556107cd565b6107a6818463ffffffff610e2d16565b600160a060020a033381166000908152600560209081526040808320938916835292905220555b600160a060020a0333811660008181526005602090815260408083209489168084529490915290819020547f8c5be1e5ebec7d5bd14f71427d1e84f3dd0314c0f7b2291e5b200ac8c7c3b925915190815260200160405180910390a35060019392505050565b600160a060020a031660009081526003602052604090205490565b60065460009033600160a060020a0390811691161461086c57600080fd5b60065460a060020a900460ff161561088357600080fd5b6006805474ff0000000000000000000000000000000000000000191660a060020a1790557fae5184fba832cb2b1f702aca6117b8d265eaf03ad33eb133f19dde0f5920fa0860405160405180910390a150600190565b600654600160a060020a031681565b60018054600181600116156101000203166002900480601f0160208091040260200160405190810160405280929190818152602001828054600181600116156101000203166002900480156104c05780601f10610495576101008083540402835291602001916104c0565b60065460009060a060020a900460ff16151561096e57600080fd5b6109788383610e3f565b9392505050565b600061098b84846104c8565b5083600160a060020a0316638f4ffcb1338530866040518563ffffffff1660e060020a0281526004018085600160a060020a0316600160a060020a0316815260200184815260200183600160a060020a0316600160a060020a0316815260200180602001828103825283818151815260200191508051906020019080838360005b83811015610a24578082015183820152602001610a0c565b50505050905090810190601f168015610a515780820380516001836020036101000a031916815260200191505b5095505050505050600060405180830381600087803b1515610a7257600080fd5b6102c65a03f11515610a8357600080fd5b5060019695505050505050565b600160a060020a033381166000908152600560209081526040808320938616835292905290812054610ac8908363ffffffff610e1e16565b600160a060020a0333811660008181526005602090815260408083209489168084529490915290819020849055919290917f8c5be1e5ebec7d5bd14f71427d1e84f3dd0314c0f7b2291e5b200ac8c7c3b92591905190815260200160405180910390a350600192915050565b60065460009033600160a060020a03908116911614610b5257600080fd5b600654600160a060020a038085169163a9059cbb91168460006040516020015260405160e060020a63ffffffff8516028152600160a060020a0390921660048301526024820152604401602060405180830381600087803b1515610bb557600080fd5b6102c65a03f11515610bc657600080fd5b5050506040518051949350505050565b600160a060020a03918216600090815260056020908152604080832093909416825291909152205490565b60065433600160a060020a03908116911614610c1c57600080fd5b600160a060020a0381161515610c3157600080fd5b600654600160a060020a0380831691167f8be0079c531659141344cd1fd0a4f28419497f9722a3daafe3b4186f6b6457e060405160405180910390a36006805473ffffffffffffffffffffffffffffffffffffffff1916600160a060020a0392909216919091179055565b6000600160a060020a0383161515610cb357600080fd5b600160a060020a038416600090815260036020526040902054821115610cd857600080fd5b600160a060020a0380851660009081526005602090815260408083203390941683529290522054821115610d0b57600080fd5b600160a060020a038416600090815260036020526040902054610d34908363ffffffff610e2d16565b600160a060020a038086166000908152600360205260408082209390935590851681522054610d69908363ffffffff610e1e16565b600160a060020a03808516600090815260036020908152604080832094909455878316825260058152838220339093168252919091522054610db1908363ffffffff610e2d16565b600160a060020a03808616600081815260056020908152604080832033861684529091529081902093909355908516917fddf252ad1be2c89b69c2b068fc378daa952ba7f163c4a11628f55a4df523b3ef9085905190815260200160405180910390a35060019392505050565b60008282018381101561097857fe5b600082821115610e3957fe5b50900390565b6000600160a060020a0383161515610e5657600080fd5b600160a060020a033316600090815260036020526040902054821115610e7b57600080fd5b600160a060020a033316600090815260036020526040902054610ea4908363ffffffff610e2d16565b600160a060020a033381166000908152600360205260408082209390935590851681522054610ed9908363ffffffff610e1e16565b600160a060020a0380851660008181526003602052604090819020939093559133909116907fddf252ad1be2c89b69c2b068fc378daa952ba7f163c4a11628f55a4df523b3ef9085905190815260200160405180910390a3506001929150505600a165627a7a7230582060288ab3283834f86ffeb0db67eb578cd6a7f3d295ea0d997b4a3665de1555220029",
  "source": "pragma solidity ^0.4.19;\n\nimport \"zeppelin-solidity/contracts/token/ERC20/DetailedERC20.sol\";\nimport \"zeppelin-solidity/contracts/token/ERC20/BurnableToken.sol\";\nimport \"zeppelin-solidity/contracts/token/ERC20/MintableToken.sol\";\nimport \"./ApproveAndCallFallBack.sol\";\n\n\ncontract SkillChainToken is DetailedERC20, MintableToken, BurnableToken {\n\n    modifier canTransfer() {\n        require(mintingFinished);\n        _;\n    }\n\n    function SkillChainToken() DetailedERC20(\"Skillchain\", \"SKI\", 18) public {}\n\n    function transfer(address _to, uint _value) canTransfer public returns (bool) {\n        return super.transfer(_to, _value);\n    }\n\n    function transferFrom(address _from, address _to, uint _value) canTransfer public returns (bool) {\n        return super.transferFrom(_from, _to, _value);\n    }\n\n    function approveAndCall(address _spender, uint256 _tokens, bytes _data) public returns (bool success) {\n        approve(_spender, _tokens);\n        ApproveAndCallFallBack(_spender).receiveApproval(\n            msg.sender,\n            _tokens,\n            this,\n            _data\n        );\n        return true;\n    }\n\n    function transferAnyERC20Token(address _tokenAddress, uint256 _tokens) onlyOwner public returns (bool success) {\n        return ERC20Basic(_tokenAddress).transfer(owner, _tokens);\n    }\n}\n",
  "sourcePath": "/Applications/MAMP/htdocs/solidity/skillchain-smartcontracts/contracts/SkillChainToken.sol",
  "compiler": {
    "name": "solc",
    "version": "0.4.19+commit.c4cbbb05.Emscripten.clang"
  },
  "schemaVersion": "1.0.1",
  "updatedAt": "2018-02-19T11:02:32.417Z"
}