{
  "contractName": "TestContract",
  "abi": [
    {
      "constant": true,
      "inputs": [],
      "name": "data",
      "outputs": [
        {
          "name": "",
          "type": "bytes"
        }
      ],
      "payable": false,
      "stateMutability": "view",
      "type": "function"
    },
    {
      "inputs": [],
      "payable": false,
      "stateMutability": "nonpayable",
      "type": "constructor"
    },
    {
      "constant": false,
      "inputs": [
        {
          "name": "from",
          "type": "address"
        },
        {
          "name": "_amount",
          "type": "uint256"
        },
        {
          "name": "_token",
          "type": "address"
        },
        {
          "name": "_data",
          "type": "bytes"
        }
      ],
      "name": "receiveApproval",
      "outputs": [],
      "payable": false,
      "stateMutability": "nonpayable",
      "type": "function"
    }
  ],
  "bytecode": "0x6060604052341561000f57600080fd5b61038f8061001e6000396000f30060606040526004361061004b5763ffffffff7c010000000000000000000000000000000000000000000000000000000060003504166373d4a13a81146100505780638f4ffcb1146100da575b600080fd5b341561005b57600080fd5b610063610155565b60405160208082528190810183818151815260200191508051906020019080838360005b8381101561009f578082015183820152602001610087565b50505050905090810190601f1680156100cc5780820380516001836020036101000a031916815260200191505b509250505060405180910390f35b34156100e557600080fd5b6101536004803573ffffffffffffffffffffffffffffffffffffffff90811691602480359260443516919060849060643590810190830135806020601f820181900481020160405190810160405281815292919060208401838380828437509496506101f395505050505050565b005b60008054600181600116156101000203166002900480601f0160208091040260200160405190810160405280929190818152602001828054600181600116156101000203166002900480156101eb5780601f106101c0576101008083540402835291602001916101eb565b820191906000526020600020905b8154815290600101906020018083116101ce57829003601f168201915b505050505081565b8173ffffffffffffffffffffffffffffffffffffffff81166323b872dd8630876000604051602001526040517c010000000000000000000000000000000000000000000000000000000063ffffffff861602815273ffffffffffffffffffffffffffffffffffffffff93841660048201529190921660248201526044810191909152606401602060405180830381600087803b151561029157600080fd5b6102c65a03f115156102a257600080fd5b505050604051805150600090508280516102c09291602001906102c8565b505050505050565b828054600181600116156101000203166002900490600052602060002090601f016020900481019282601f1061030957805160ff1916838001178555610336565b82800160010185558215610336579182015b8281111561033657825182559160200191906001019061031b565b50610342929150610346565b5090565b61036091905b80821115610342576000815560010161034c565b905600a165627a7a7230582017875c8a403c0f1421deecfbdaf7e6dd8de82fcc665255fa815a998085715ffe0029",
  "source": "pragma solidity ^0.4.19;\n\nimport \"zeppelin-solidity/contracts/token/ERC20/StandardToken.sol\";\n\n\ncontract TestContract {\n\n    bytes public data;\n\n    function TestContract() public {}\n\n    function receiveApproval(\n        address from,\n        uint256 _amount,\n        address _token,\n        bytes _data) public\n    {\n        StandardToken token = StandardToken(_token);\n        token.transferFrom(from, this, _amount);\n        data = _data;\n    }\n}\n",
  "sourcePath": "/Applications/MAMP/htdocs/solidity/skillchain-smartcontracts/contracts/TestContract.sol",
  "compiler": {
    "name": "solc",
    "version": "0.4.19+commit.c4cbbb05.Emscripten.clang"
  },
  "schemaVersion": "1.0.1",
  "updatedAt": "2018-02-19T11:02:32.417Z"
}